:020000040800F2
:10000000385400203503000811400008EB3D00087B
:100010000D40000871220008794800080000000027
:10002000000000000000000000000000DD020008E9
:10003000C12200080000000083020008C54000083B
:100040004F0300084F0300084F0300084F03000848
:100050004F0300084F0300084F0300084F03000838
:100060004F0300084F0300084F0300084F03000828
:1000700075220008852200084F0300084F0300087E
:100080004F0300084F0300084F0300084F03000808
:100090004F0300084F0300084F0300084F030008F8
:1000A0004F0300084F0300084F0300084F030008E8
:1000B0004F0300084F0300084F0300084F030008D8
:1000C0004F0300084F0300084F0300084F030008C8
:1000D0004F0300084F0300084F0300086948000859
:1000E0004F0300084F0300084F03000800F002F818
:1000F00000F0B0F80AA090E8000C82448344AAF112
:100100000107DA4501D100F0A5F8AFF2090EBAE80F
:100110000F0013F0010F18BFFB1A43F0010318473B
:1001200004CD000024CD00000A444FF0000C10F86C
:10013000013B13F0070408BF10F8014B1D1108BF65
:1001400010F8015B641E05D010F8016B641E01F805
:10015000016BF9D113F0080F1EBF10F8014BAD1C55
:100160000C1B09D16D1E58BF01F801CBFAD505E073
:1001700014F8016B01F8016B6D1EF9D59142D6D3CD
:10018000704700000023002400250026103A28BFF5
:1001900078C1FBD8520728BF30C148BF0B607047F9
:1001A0006E2900F09184702900F0DB8566290BF040
:1001B000FB8565290BF0F88567290BF0F58561292A
:1001C0000BF0F48503681B0A28BF41F08001692900
:1001D00000F03E84642900F03B84752900F03884E7
:1001E0006F2900F06885782900F0A785E92900F0DB
:1001F0000385E42900F00085F52900F0FD84EF294E
:1002000000F06585F82900F0A6850368DB0928BFA2
:1002100041F08001632901F03B83732901F04083A1
:10022000E32901F04B83F32901F05083002070474C
:100230001FB500F0F5FE0400002000210BF046FC85
:10024000401C6060002000210BF056FCE0601FBDE8
:1002500010B510BD01F06CFB1146FFF7E9FF07F088
:1002600091F901F039FC03B4FFF7F2FF03BC01F090
:100270003DFC0000EFF3108072B6704780F31088E9
:10028000704772B61EF0040F0CBFEFF30880EFF357
:10029000098040F2B411C2F20001096800290AD0B5
:1002A00020E9F00FEFF31482734620E90C001EF0F2
:1002B000040F08BF85460AF06FFAB0E8FC0F9E46AF
:1002C00082F31488BFF36F8F1EF0040F0CBF80F30E
:1002D000088880F3098862B6704700001EF0040F9A
:1002E0000CBFEFF30880EFF3098020E9F00FEFF384
:1002F0001482734620E90C001EF0040F08BF8546E7
:1003000040F2B411C2F200010A68002A00D0106065
:1003100001B503F093FEBDE80140B0E8FC0F9E4636
:10032000BFF36F8F1EF0040F0CBF80F3088880F3BB
:10033000098870470948804709480047FEE7FEE7FB
:10034000FEE7FEE7FEE7FEE7FEE7FEE7FEE7FEE785
:1003500004480549054A064B704700002F41000834
:10036000ED000008384E002038540020385000209E
:10037000385000202DE900504FF0000C00DF00BF86
:10038000BDE8005070472DE900504FF0020C00DF2F
:1003900000BFBDE8005070472DE900504FF0010C40
:1003A00000DF00BFBDE80050704753EA020C00F0C8
:1003B00069802DE9F04B4FF00006002B1FBFB3FA08
:1003C00083F503FA05F424FA05F65E4012BF1643DE
:1003D000B2FA82F502FA05F4C5F120051EBF22FA31
:1003E00005FC44EA0C04203556EA044C4FEA144458
:1003F00018BF641C4FF000084FF00009904271EBE9
:10040000030C39D3002919BFB1FA81F701FA07F6B5
:10041000B0FA80F700FA07F6C7F120071EBF20FAEE
:1004200007FC46EA0C062037B6FBF4FCA7EB0507F1
:10043000103F07F01F0BCBF120060CFA0BFB2CFA38
:1004400006F644BFB3460026202FA4BF5E464FF0F9
:10045000000B5BEA060C08BF4FF0010B19EB0B0910
:10046000ABFB027C48EB0608C01B06FB02CC0BFB77
:1004700003CC71EB0C01C1E70B46024641464846EE
:10048000BDE8F08B13B54FF000004FF00001AFF363
:100490000080BDE81C4070477CB51D4616460C0028
:1004A000009001D02044401E074B7B442A466946F9
:1004B0000190304600F021FB05461CB10020694642
:1004C00000F02EFB28467CBD7D0600002DE9F05F84
:1004D00093460F4680460446002600F053FAD0F8B3
:1004E0000090824614F8015B2DB100F043FA0068D9
:1004F000405DC007F6D12B2D02D02D2D1AD0641EE1
:100500000021CAF800105A463946204600F0F8FC8F
:10051000014627B13868A04201D1C7F80080DAF857
:100520000000022809D0CAF80090700505D548429D
:10053000BDE8F09F46F48066E2E70846F8E740EA47
:10054000010310B59B070FD1042A0DD310C808C9A9
:10055000121F9C42F8D020BA19BA884201D9012052
:1005600010BD4FF0FF3010BD1AB1D30703D0521C9D
:1005700007E0002010BD10F8013B11F8014B1B1BD8
:1005800007D110F8013B11F8014B1B1B01D1921E42
:10059000F1D1184610BD0022CBB210F8011B9942D0
:1005A00000D1421E0029F8D11046704710B5431CF7
:1005B00002E010F8011B71B18107FAD14FF001324E
:1005C00002C88C1A8C4314EAC211F9D0C01A0A0668
:1005D00003D0C01E10BDC01A10BD0A0401D0801E79
:1005E00010BD0902FCD0401E10BD40EA010370B5E9
:1005F0009B072ED14FF00136042A2AD308C810C910
:100600009D1B9D43121F15EAC61517D0D8B2E1B243
:10061000401A50EA056110D198B2A1B2401A50EACE
:1006200005410AD123F07F4024F07F41401A50EA6F
:10063000052102D1180EA0EB146070BDA342DBD0DF
:1006400018BA21BA884201D9012070BD4FF0FF309D
:1006500070BD0AB9002070BD10F8013B11F8014BC4
:1006600063B1A3420AD1521E08D010F8013B11F821
:10067000014B1BB1A34201D1521EEDD1181B70BD1D
:10068000032A40F2308010F0030C00F0158011F8BE
:10069000013BBCF1020F624498BF11F801CB00F896
:1006A000013B38BF11F8013BA2F1040298BF00F8EA
:1006B00001CB38BF00F8013B11F0030300F0678065
:1006C000083AC0F0088051F8043B083A51F804CBCE
:1006D000A0E80810F5E7121D5CBF51F8043B40F894
:1006E000043BAFF30080D20724BF11F8013B11F89F
:1006F00001CB48BF11F8012B24BF00F8013B00F8E3
:1007000001CB48BF00F8012B7047431A28BF9A421B
:100710007FF6B6AF032A1044114440F2268010F051
:10072000030F1EBF11F8013D521E00F8013D10F0ED
:10073000030F7FF4F6AF11F0030300F04384083A8F
:10074000C0F00B8051F8043D083A51F804CD40F850
:10075000043D40F804CDFFF7F3BF121D5CBF51F814
:10076000043D40F8043DAFF30080D20724BF11F8E8
:10077000013D11F801CD48BF11F8012C24BF00F84C
:10078000013D00F801CD48BF00F8012C704710B5BD
:10079000203AC0F00B80B1E81850203AA0E8185079
:1007A000B1E81850A0E81850BFF4F5AF5FEA027C3A
:1007B00024BFB1E81850A0E8185044BF18C918C0A9
:1007C000BDE810405FEA827C24BF51F8043B40F84A
:1007D000043B08BF7047D20728BF31F8023B48BF2F
:1007E00011F8012B28BF20F8023B48BF00F8012B6D
:1007F000704702F0FF0343EA032242EA024200F09C
:1008000002B84FF000020429C0F0128010F0030C6F
:1008100000F01B80CCF1040CBCF1020F18BF00F8F3
:10082000012BA8BF20F8022BA1EB0C0100F00DB8A2
:100830005FEAC17C24BF00F8012B00F8012B48BF00
:1008400000F8012B70474FF0000200B513469446A4
:100850009646203922BFA0E80C50A0E80C50B1F118
:100860002001BFF4F7AF090728BFA0E80C5048BF2C
:100870000CC05DF804EB890028BF40F8042B08BFCA
:10088000704748BF20F8022B11F0804F18BF00F8C6
:10089000012B704710B5044610F0030F08BF11F08C
:1008A000030F40F015804FF0013E121FC0F20E8082
:1008B00051F8043BA3EB0E0C2CEA030C1CEACE1CF3
:1008C00008BF40F8043BF0D0A1F1040102F104029A
:1008D000521E08DB11F8013B002B00F8013BF7D159
:1008E0001146FFF78EFF204610BD00004FF0013C7F
:1008F00050F8042B51F8043B9A4221D1A2EB0C038F
:10090000934313EACC1317D150F8042B51F8043B4E
:100910009A4215D1A2EB0C03934313EACC130BD1EB
:1009200050F8042B51F8043B9A4209D1A2EB0C0376
:10093000934313EACC13DBD04FF00000704700BFA5
:10094000D01A01BAB1FA81F101F0180122FA01F0CE
:10095000CB40C1F12001DBB2C0B2C01A2CFA01F3C6
:10096000D11A914311EAC311E6D17047704770471D
:100970007047000010B500F053FB001D10BD00BF14
:100980004DB1000000487047D44D002070B50446BA
:1009900085690068C10601D5302600E02026C00721
:1009A00007D070BDD4E9012130469047206A401C31
:1009B00020626D1EF6D570BD70B50446856900785D
:1009C000C00707D170BDD4E9012120209047206ADB
:1009D000401C20626D1EF6D570BD09684A0501D520
:1009E00040B27047C905FCD500B2704709684A0596
:1009F00001D5C0B27047C905FCD580B2704770B54B
:100A00000C460546012A05D02878800600D5EA69FB
:100A1000002302E0012305E05B1C934202D2E05C6C
:100A20000028F9D1A869E618C01AA861286A1844F4
:100A300028622846FFF7AAFF04E0D5E9012114F84F
:100A4000010B9047B442F8D32846FFF7B5FF70BDBD
:100A50002DE9F0410646002410687529314616A597
:100A600010D0FFF7BAFF002802DA404213A507E0D2
:100A700031688A0701D512A502E0490704D511A5FE
:100A8000012401E0FFF7B2FF00210A2206F124074A
:100A900009E0B0FBF2FCB0FBF2F302FB1C003030CB
:100AA00078541846491C0028F3D123462A4630467C
:100AB000BDE8F04100F0FDBA000000002D0000008C
:100AC0002B0000002000000011680268006A530536
:100AD00001D508700AE0D30501D5088006E01306A9
:100AE00003D5C217C1E9000200E008600120704789
:100AF00001694A1C02610878704700B58FB0CDE9E2
:100B000001310021059105497944CDE903101146D1
:100B1000684600F031F90FB000BD0000E5FFFFFFAF
:100B20000A6802F8010B0A607047D1E900239A4273
:100B300002D2531C0B601070704700002DE9FF5F5C
:100B400015468A460446DFF8AC80F8440027D8E909
:100B500000103E46CDE9001010E03AF816106A4643
:100B600002A800F0C5FE411C07D02178890603D5F4
:100B7000E269391891420DD80744761C2078800626
:100B800002D5E069B84205DDAE42E6DB3AF8160070
:100B90000028E2D1A069C01BA0612046FFF7F6FE45
:100BA000D8E90010CDE90010002017E03AF818103D
:100BB0006A4602A800F09CFEB0F1FF3F81460BD0D0
:100BC00000250DF1080B05E0D4E901211BF8050013
:100BD00090476D1C4D45F7D308F10100B0428046A7
:100BE000E4DB206A384420622046FFF7E5FEBDE8DA
:100BF000FF9F0000C6BE00002DE9F0418046D21DD7
:100C000022F007020025D2E90002F52915A614D02A
:100C1000011E72F1000106DA0023D0EB030063EB42
:100C2000020211A608E0D8F800108B0701D50FA624
:100C300002E0490701D50EA601251146002408F15E
:100C4000240704E000F0F0F930323A55641C50EA11
:100C50000102F7D12B46324621464046BDE8F0411D
:100C600000F027BA000000002D0000002B0000005B
:100C70002000000030B4002100F1240408E002F05C
:100C80000705D208303542EA4372DB086554491C37
:100C900052EA0305F3D10468002310A2250707D503
:100CA000A40600D421B1C46901230DA2641EC4614D
:100CB00030BC00F0FEB910B5044621461068FFF7BD
:100CC00095FE02462046BDE810400023D2E7D21D23
:100CD00022F00701D1E90023CCE70000000000006A
:100CE00030000000F0B40D460188090502D5214C02
:100CF0007C4402E01F4C7C440E34002100F12406A9
:100D000008E002F00F071209E75D42EA03721B09CF
:100D10007754491C52EA0307F3D1027800231207E3
:100D200004D5702D06D009B1022311342246F0BC3F
:100D300000F0BFB901231034F8E770B504460D4642
:100D400021461068FFF752FE024629462046BDE8BC
:100D500070400023C6E7D21D22F00703D3E9002329
:100D6000C0E70368126843F0200303600823C361EF
:100D70000023B7E728BD00002DE9F05F894604464F
:100D80004FF0000ADFF874B1FB44C0F820A0204601
:100D9000E1688847002874D0252806D0D4E90121CD
:100DA0009047206A401C2062F1E700265F462046FB
:100DB000E16888472028054607DB312D05D27819E0
:100DC00010F8200C08B10643F1E7B00701D526F072
:100DD0000406C4F81CA00027C4F818A02A2D09D0C6
:100DE000284603F043FE38B304EB8708303DC8F8CB
:100DF000185019E059F8041B204604EB8702916152
:100E0000E1688847012F054618D1E069002820DAFB
:100E100026F020061DE0D8F8180000EB800005EB56
:100E200040003038C8F818002046E1688847054679
:100E300003F01CFE0028EED1012F0AD02E2D08D180
:100E40002046E16888477F1C0546022F46F02006B1
:100E5000C4DBA069002803DA404246F00106A06125
:100E6000F00701D026F010066C2D0BD0682D09D0AC
:100E70004C2D39D06A2D35D0742D35D07A2D33D004
:100E800016E038E0E1682F4620468847B84205461C
:100E900009D16C2F26D04FF48060E16806432046CC
:100EA0008847054604E06C2F1AD04FF48070064343
:100EB0000DB3A5F14100192802D8203546F400668B
:100EC0004A462946204626604E46FFF769F980B11A
:100ED00001280BD0F61D26F0070000F1080956E79F
:100EE0004020E4E78020D8E70020D6E706F1040997
:100EF0004DE7284652E7206ABDE8F09FB8BC0000E5
:100F00002DE9F05F824615468B4600270AF1010461
:100F1000B9460078302801D09DB113E014F8010BD8
:100F20000127782803D0582801D045B10AE00DB137
:100F3000102D07D1002714F8010B102502E0082519
:100F400000E00A250026B0460EE005FB080005FB80
:100F500006F101271FFA80F801EB1046B6F5803F35
:100F600000D3B94614F8010B294600F0B3FC002861
:100F7000EBDABBF1000F05D00FB1641E00E0544660
:100F8000CBF80040B9F1000F06D0FFF7FBFC0221BF
:100F90000160C81EBDE8F09F48EA0640FAE7431A20
:100FA00028BF9A427FF6F3AB104410F0030F1144B0
:100FB0001EBF11F8013D521E00F8013D10F0030F55
:100FC0007FF4F6AF103AC0F00A8010B531E918503E
:100FD000103A20E91850BFF4F9AFBDE810405307AC
:100FE00024BF31E9081020E9081044BF51F8043D3E
:100FF00040F8043D12F0030F08BF7047D20728BF26
:1010000031F8023D48BF11F8012C28BF20F8023DFD
:1010100048BF00F8012C704700487047D44D0020AD
:1010200000487047F44D002030B5B0F10A024FEA95
:10103000900E71F100034EEA817EB0EB0E0061EB81
:1010400091014FEA101E4EEA017E10EB0E0041EBBB
:1010500011114FEA102E4EEA016E10EB0E0041EB1B
:1010600011214FEA104E4EEA014E10EB0E0041EBFB
:101070001141401841F100014FEAD00040EA4170AF
:101080004FEAD10110EB80054FEA810444EA9074E5
:1010900044EB01046D1944EB0404521BA3414FF0CF
:1010A000000348BF0A3200D530BD401C41F10001A9
:1010B00030BD2DE9F0470D4699469246044600F1B1
:1010C00024080168880604D5E06921F01001216038
:1010D00000E00120A84201DD471B00E00027A169D4
:1010E0007A1902EB0900081AA0612078C00602D420
:1010F0002046FFF74BFC002608E0D4E901211AF84E
:1011000006009047206A401C761C20624E45F4DBA6
:101110002078C0060AD52046FFF738FC06E0D4E95F
:10112000012130209047206A401C2062381EA7F120
:101130000107F4DC07E0D4E9012118F80500904725
:10114000206A401C2062281EA5F10105F3DC204620
:10115000FFF732FC2078000602D50220BDE8F087B8
:101160000120FBE770472DE9FF4F0C461E464FF06C
:10117000FF378BB0D2E90001DDF860800A908A4623
:10118000C1F30A5505B93D46002108464FF000005D
:10119000BAF1000F00F4400005DA00EB80004FF4D4
:1011A000400101EA50004FEA9059B9F1010F00DD0A
:1011B000B9460A9850EA4A000ED044F61050A5F2FB
:1011C000FF3545432F14B8F1000F1ED07542291E7C
:1011D0001EDDC9F100021CE0B8F1010F4FF0000064
:1011E00001D0302103E0F24305E02154401CB0421D
:1011F000FBDB30460022002121540B99C1F8088006
:10120000C1E900200FB0BDE8F08FBD1B6D1CDEE70B
:101210004A4600DA694206A800F0F0FB06AB93E804
:10122000070003AB83E8070050460A9900F065FC0D
:101230008DE80700A0F500501F3800900398002D9E
:1012400009DD42F21F014A46084403A9039068469B
:1012500000F0C4FE08E0A0F500504A461F3803A97C
:101260000390684600F0CEFE8DE807000004000CF5
:1012700003D04FF0FF30410800E01046B8F1000FF6
:1012800003D00022009215461EE0751E05D4FFF71C
:10129000CBFE303262556D1EF9D5B34601220843AC
:1012A00002D000227F1C04E02078302801D10022E7
:1012B0007F1E002A099786D01DE0112D07DAFFF75F
:1012C000B3FE303262556D1C50EA0102F5D108437D
:1012D00002D00098C8B10EE00021681E05E0235C32
:1012E000625C63542254401E491C8142F7DBAB46CA
:1012F000A81B401E0990002004F80B000B98099AC7
:10130000C0F80880C0E9002B7CE711264FF00008E8
:1013100059E72DE9F04F88460446D21D22F0070117
:1013200091B0D1E90001CDE90A0103F0A7FA024624
:101330000B98C00F01D02D2007E02068810701D550
:101340002B2002E0202101EAC000032A099001D0ED
:10135000072A05DB03464146204600F00FFB0BE160
:101360002078800601D5E06900E00620B8F1650F1D
:10137000814606D0B8F1660F18D0B8F1670F70D16A
:1013800031E00020B9F1110F009001DB112301E0E1
:1013900009F101030AAA01A90CA8FFF7E4FEDDE99F
:1013A0000C70002609F10105834647E001204B46F9
:1013B00000904FF000470AAA01A90CA8FFF7D3FE3E
:1013C000DDE90DB00C995D46002610B909F1010068
:1013D0000D18B9EB050003D4C0F1FF3609F1010582
:1013E000A5EB09002BE0B9F1010F01DA4FF001097B
:1013F0000020B9F1110F0090484601DD112300E0F3
:1014000003460AAA01A90CA8FFF7ADFEDDE90C709E
:101410004D4600268346207800070AD4AB4500DA03
:101420005D4601A8012D04DD411911F8011C302988
:1014300007D04F4502DA17F1040F04DA0120824683
:101440000FE06D1EEEE7002F02DCED1B3E4403E0D3
:10145000781CA84200DD7D1CB81B00F1010A4FF08A
:1014600000472078000703D4AA4501DB4FF0FF3A7C
:101470000021B7F1004F0DF143088DF8431024D03F
:1014800002202B23002F01DA7F422D230A21021E86
:10149000A0F1010000DC5FB197FBF1FC97FBF1F2DA
:1014A00001FB1C7C17460CF1300C08F801CDEEE76F
:1014B000A8F1010003702188090501D5452100E04C
:1014C0006521A0F1010800F8011C09980FA9A1EB02
:1014D0000807FF1D00B10120411901EBEA70A16965
:1014E0003844081A401EA0612078C00602D4204665
:1014F000FFF74CFA099828B1D4E901219047206AF6
:10150000401C20622078C00622D52046FFF73EFA14
:101510001EE0002E04DBB34502DD01A8805D00E083
:101520003020D4E901219047206A401C2062761CBB
:10153000AAF101005FEA000A0AD1FFF771FDC06855
:101540000168405CD4E901219047206A401C206278
:10155000281EA5F10105DCDC07E0D4E9012118F81B
:10156000010B9047206A401C2062381EA7F101073A
:10157000F3DC2046FFF720FA032011B043E6000019
:101580002DE9F04F04460D46D21D22F0070089B028
:10159000D0E900974846394603F070F90246F80F43
:1015A00001D02D2307E02068810701D52B2302E01D
:1015B000202101EAC0038DF820300BB1012000E0AA
:1015C0000020032A824601D0072A04DB2946204650
:1015D00000F0D4F93FE12078800601D40D2500E029
:1015E000E569C7F30A560D2D49DA00214FEA175B6A
:1015F00008464FF00000002F00F4400007DA00EB2F
:1016000080004FF4400100EBD07001EA60008115CA
:10161000012901DD4FF0FF3100224FEA850CBCF1BA
:10162000180F06D31346ACF118004FF08052C24099
:1016300003E04FF4801323FA0CF30CF10C0CBCF113
:10164000200F04D3ACF1200C09FA0CF001E007FAEA
:101650000CF000294FF0004801DD18B90FE00ED161
:1016600040450CD319EB02095F4121B9404502D135
:101670009F4329EA0209BBEB175F00D0761C208844
:10168000000502D57B48784402E07A48784419384E
:1016900008AA302302F80A30037C0AF10101002E67
:1016A0000AF1020A53546A4602DC4FF0300101E0AD
:1016B0004FF031014FF001088DF8001002D0A6F272
:1016C000FF3603E059EA470100D06B4E002D02DCE3
:1016D0002178090704D54FF002082E218DF801105A
:1016E000C44600210BE0C7F303433F01C35C491C20
:1016F0006D1E02F80830052908F1010801DA002DF5
:10170000F1DC00210CE000EB1973491C1B786D1E05
:10171000082902F808304FEA091908F1010801DA2E
:10172000002DF0DC21688B0602D516E0A8F1010837
:10173000E04505DD02EB080313F8013C302BF5D042
:10174000B8F1000F09DD02EB080313F8013C2E2B62
:1017500003D1090701D4A8F10108002D05DD3E21C0
:1017600002F808106D1E08F10108407C002E02F8F6
:10177000080008F1010804DA2D20764202F808007A
:1017800002E02B2002F808000A214FF47A7086420A
:1017900008F101080BDB96FBF0F3303302F8083058
:1017A00096FBF0F308F1010800FB136601E0642EDC
:1017B0000CDB642096FBF0F3303302F8083096FB24
:1017C000F0F308F1010800FB136601E00A2E06DBC6
:1017D00096FBF1F0303002F8080008F1010896FBA2
:1017E000F1F001FB1060303002F80800A16908F147
:1017F000010808EB050202EB0A00081AA061207834
:10180000C00602D42046FFF7C1F8216A08AE01EBFA
:101810000A00206204E0D4E9012116F8010B904788
:10182000BAF1010AF7D22078C00602D52046FFF7A8
:10183000ADF86E4609E016F8010B3E280FD0D4E94A
:1018400001219047206A401C2062B8F10108F2D2C1
:101850002046FFF7B1F809B00320BDE8F08F206AF9
:101860002844206203E0D4E90121302090476D1E16
:10187000EBD3F8E7DEB3000002FCFFFF10B54369CD
:1018800013B1AFF3008001E0FFF7B9F8012010BDFC
:10189000127800F124010A7000224A700122EDE75B
:1018A00011684FF0FF32E9E710B5436913B1AFF3A8
:1018B000008001E0FFF742F9012010BD128800F11D
:1018C000240182840022C2840122EDE711684FF0D6
:1018D000FF32E9E73A2800D2303820F02002412ACE
:1018E00001D3A2F13700884201D34FF0FF30704797
:1018F00070B516460C460546FFF73CF8036893F8AA
:101900000101012806D0FF2C0FD8185D68B1012015
:101910002C7070BDD3F807013246214603F207133D
:1019200003442846BDE8704018474FF0FF3070BDB3
:101930007546FFF771FBAE4605006946534620F039
:101940000700854618B020B5FEF702FDBDE820402F
:101950004FF000064FF000074FF000084FF0000B6B
:1019600021F00701AC46ACE8C009ACE8C009ACE81E
:10197000C009ACE8C0098D46704700002DE9F04170
:101980001F46044603260168072A01F4006004DBB1
:1019900008B116A505E016A503E008B115A500E0FD
:1019A00015A521F010002060A069C01EA0610FB134
:1019B000401EA0612046FEF7E9FF4FB1D4E90121A6
:1019C00038469047206A401C2062C01C206206E016
:1019D000206AFAE7D4E9012115F8010B9047761E39
:1019E000F8D22046FEF7E8FFBDE8F0814E414E00F8
:1019F0006E616E00494E4600696E66002DE9F04743
:101A0000814616468AB0334878440DC88DE80D00EB
:101A100030487844801C03AC0DC884E80D0041F6C2
:101A20009B300844372190FBF1F290FBF1F5A5F1D2
:101A3000800501FB12041B3C02D56442012000E03A
:101A40000020DFF890A080460027FA44AAF1BE0AE1
:101A50000DE0E00709D03246684607EB47010AEB84
:101A6000810100F0CFFA8DE8070064107F1C002C84
:101A7000EFD1184F7F44AC3F18E0E80714D007EBD4
:101A800004100DF1180A90E80E008AE80E00C068F4
:101A9000F04201D198190890324606A903A800F037
:101AA000B1FA03AB83E807006D10641C002DE4D18C
:101AB00032466946B8F1000F03A802D000F08EFA52
:101AC00001E000F09FFAC9E90001C9F808200AB056
:101AD000BDE8F087ECB0000010B50446AFF300801D
:101AE0002046BDE81040FEF7BEBB000001491820AB
:101AF000ABBEFEE72600020070475FEA400C08BF5D
:101B000091F0000F4FEA8C234FEAC12243EA515172
:101B10004FEA1C5018BF00F5F0404FEA300018BFE4
:101B200041F000415FEA6C5C00F02980BCF1FF3FAE
:101B300008BF40F080407047130C06BF12044FF0FE
:101B4000100C4FF0000C130E04BF12020CF1080C25
:101B5000130F04BF12010CF1040C930F04BF920089
:101B60000CF1020CD30F04BF52000CF1010C114612
:101B70004FF00002A0F11F00A0EB0C00704711F025
:101B8000004F08BF704731F000413FF4D5AF0B0C58
:101B900006BF09044FF0100C4FF0000C0B0E04BFF1
:101BA00009020CF1080C0B0F04BF09010CF1040C25
:101BB0008B0F04BF89000CF1020CCB0F04BF49004E
:101BC0000CF1010CCCF12003A0EB0C0022FA03F382
:101BD00002FA0CF241EA030100F10100704720F023
:101BE0007F4C80EA030023F07F47ACEB070303F54B
:101BF0007C5300F0004003F1FF032DE980494FEAD8
:101C0000154B09B44FEA144325EA0B4E24EA034866
:101C10000FF2042606EB132749083E785FEA3202EA
:101C200003FB0667C7F5000707FB06F64FEA5437C4
:101C30004FEAD64606F1020607FB066CCCF1005CC3
:101C40004FEA1C472CEA074C07FB06F40CFB06F591
:101C500004EB15464FEA961634BF00204FF00040C3
:101C60004FEAD13706FB07FC4FEA1C4C0CFB0BF785
:101C7000D21B03FB0CF761EB07010CFB0EF7B0EB7B
:101C8000074072EB17420CFB08F734BFA2EB074288
:101C9000B2EB074261EB17414FEA0C444FEA910760
:101CA00006FB07FC4FEA1C4C0CFB0BF7B0EBC740E4
:101CB00072EB573203FB0CF734BFA2EBC742B2EB17
:101CC000C74261EB57310CFB0EF7B0EBC70072EB6C
:101CD00057720CFB08F734BFA2EBC702B2EBC70286
:101CE00061EB5771039F4FEA816141EA921104EB66
:101CF000CC044FEAD1374FEA826206FB07FC42EA86
:101D000090124FEA80604FEA1C4C0CFB0BF7D21B81
:101D100003FB0CF761EB07010CFB0EF7B0EB074080
:101D200072EB17420CFB08F734BFA2EB0742B2EB91
:101D3000074261EB17414FEA8C554FEA910704EBDC
:101D40009C2406FB07FC4FEA1C4C0CFB0BF7B0EB8A
:101D5000C74072EB573203FB0CF734BFA2EBC7420C
:101D6000B2EBC74261EB57310CFB0EF7B0EBC7008B
:101D700072EB57720CFB08F734BFA2EBC702B2EB51
:101D8000C70261EB577115EB4C254FEA816141EABF
:101D900092114FEA82624FEAD13742EA901206FB73
:101DA00007FC44F100044FEA80604FEA1C4C0CFB36
:101DB0000BF7D21B03FB0CF761EB07010CFB0EF7D3
:101DC000B0EB074072EB17420CFB08F734BFA2EBF5
:101DD0000742B2EB074261EB174115EB1C154FEAC6
:101DE000813141EA92414FEA823242EA90424FEA1F
:101DF00080304FEA0C7644F1000448EA03434EEA8F
:101E00000B484FF0000EB2EB080C71EB030724BF38
:101E1000624639464EEB0E0E4FF0000B0018524151
:101E200049414BEB0B0BB2EB080C71EB03077BF159
:101E3000000B24BF624639464EEB0E0E4FF0000BEE
:101E40000018524149414BEB0B0BB2EB080C71EB04
:101E500003077BF1000B24BF624639464EEB0E0EA2
:101E600051EA020718BF46F0010616EB0E7655F14F
:101E7000000254F1000103D5BDE88901BDE80088E6
:101E8000BDE88901BDE80048B619524141EB0101A6
:101E9000A3F10103704780807F7E7D7C7B7A797817
:101EA000777676757473727171706F6E6E6D6C6C1F
:101EB0006B6A6A69686867666665646463636261C1
:101EC0006160605F5F5E5E5D5D5C5C5B5B5A5A5942
:101ED00059585857575656555555545453535252AE
:101EE0005251515050504F4F4F4E4E4D4D4D4C4C06
:101EF0004C4B4B4B4A4A4A4949494848484747474F
:101F0000474646464545454444444443434343428B
:101F1000424242414141002B26D4770021D01CB5DA
:101F20004FEA370703B44FF010004FF010014FF0A5
:101F300000000FBCBDE810400BF1010BBBF1010F1D
:101F400008BF5FEA170722BF12F1010211F1010178
:101F50004FF0004143F1000300F0004043EA00006D
:101F60007047F9D35708DAE746EA064613F1400FFF
:101F70004FEA16461FDD13F1200FDFBF16430A4656
:101F8000002120335B42C8D0C3F1200746EA064651
:101F900002FA07F74FEA164646EA0706C3F120079A
:101FA00022FA03F201FA07F721FA03F14FF00003D6
:101FB00042EA0702B1E746EA020646EA06464FEA67
:101FC000164646EA0106BCBF46EA0646360C4FF006
:101FD00000034FF000024FF000019EE72DE9C048DA
:101FE000934630B491E8380007C831EA400C48BF46
:101FF00034EA430C03D5FFF7F2FDFFF78CFFF0BC8A
:10200000BDE800882DE9C048934630B491E8380017
:1020100007C810F0804F08BF13F0804F03D100F0C5
:1020200005F8FFF778FFF0BCBDE8008820F07F4797
:1020300080EA030023F07F4C07EB0C03A3F57C53ED
:1020400000F00040A3F1FE0392F0000F00F0B38017
:1020500095F0000F00F077802DE901494FEA11401B
:102060004FEA144621EA004800FB06FC24EA064732
:1020700008FB06F607FB08F800FB07F718EB064815
:102080004CEB164C4FEA124B18EB07484FEA15463B
:102090004CEB174022EA0B4E0BFB06FC25EA0647E9
:1020A0000EFB06F607FB0EFE0BFB07F71EEB064EBC
:1020B0004CEB164C4FF000061EEB074E4CEB174B4B
:1020C00018EB0B0840F1000018EB0E0B58EB000862
:1020D00040F100008F1A4FF000013CBFC943661B5E
:1020E00014BFB5EB040C00213CBFC943F61B4FEAFB
:1020F00017444EEA8E0E27EA04454FEA1C4704FBBC
:1021000007622CEA074C05FB07F70CFB05F604FBFE
:102110000CFC16EB074642EB174216EB0C4642EB63
:102120001C421BEB060658EB0202414146EA9E06A2
:1021300001D5BDE80189B619524141EB0101A3F176
:102140000103BDE801894FEA14454FEA114724EA2B
:10215000054621EA074C05FB07F406FB07F70CFBD5
:1021600006F105FB0CFC11EB074144EB17444FEA69
:10217000124711EB0C4144EB1C4422EA074C05FBCF
:1021800007F206FB07F70CFB06F605FB0CFC16EB4B
:10219000074642EB174216EB0C4642EB1C456A1809
:1021A00054F1000148BF7047B619524141EB01019B
:1021B000A3F10103704795F0000F37D04FEA1142A9
:1021C0004FEA144721EA024624EA074C02FB07F1D2
:1021D00006FB07F70CFB06F402FB0CFC14EB0744B0
:1021E00041EB17414FEA154714EB0C4441EB1C41FE
:1021F00025EA074C02FB07F506FB07F70CFB06F682
:1022000002FB0CFC16EB074645EB174516EB0C469C
:1022100045EB1C42121951F1000148BF7047B61935
:10222000524141EB0101A3F1010370474FEA14450C
:102230004FEA114724EA054621EA074C05FB07F15E
:1022400006FB07F70CFB06F24FF0000605FB0CFC43
:1022500012EB074241EB174112EB0C4251EB1C41D0
:1022600048BF7047921841EB0101A3F10103704789
:1022700000BFFEE710B5024800F0AAF810BD00004C
:10228000904D002010B5024800F0A2F810BD0000EB
:102290004C4D002030B590F840500124AC40C56B47
:1022A0006C60046863604468102C04D10468A26008
:1022B0000468E16003E00468A1600468E26030BD86
:1022C000704772B600BFFEE70146002291F8210078
:1022D000022808D00420886300BF002081F8200075
:1022E00000BF012070470868006820F00E000B68EE
:1022F00018600868006820F001000B68186091F809
:10230000403001209840CB6B5860012081F82100BB
:1023100000BF002081F8200000BF1046E2E7000067
:1023200070B50446002594F82100022803D004204B
:10233000A063012548E02068006820F00E002168B5
:1023400008602068006820F00100216808601F49CB
:102350002068884201D1012026E01C491431206800
:10236000884201D110201FE0184928312068884296
:1023700001D1801518E015493C312068884201D10F
:10238000801411E0114950312068884202D14FF485
:10239000803009E00D4964312068884202D14FF451
:1023A000801001E04FF08070084908394860012032
:1023B00084F8210000BF002084F8200000BF606B7B
:1023C00010B12046616B8847284670BD0800024066
:1023D00070B50446E06B05682068066894F8401004
:1023E000042088402840002846D006F00400002839
:1023F00042D02068006800F0200028B920680068FA
:1024000020F004002168086057492068884201D103
:10241000042027E0544914312068884201D140202B
:1024200020E0514928312068884201D1001519E087
:102430004D493C312068884202D14FF4804011E080
:10244000494950312068884202D14FF4802009E088
:10245000454964312068884202D14FF4800001E090
:102460004FF08060404908394860E06A00287AD01F
:102470002046E16A884776E094F8401002208840C0
:102480002840A0B306F0020088B32068006800F07E
:10249000200040B92068006820F00A002168086028
:1024A000012084F8210030492068884201D10220AF
:1024B00028E02D4914312068884201D1202021E0F4
:1024C000294928312068884201D140151AE026495F
:1024D0003C312068884202D14FF4005012E022497A
:1024E00050312068884203D14FF400300AE017E0F1
:1024F0001D4964312068884202D14FF4001001E088
:102500004FF0007018490839486000BF002084F877
:10251000200000BFA06A30B32046A16A884722E0AD
:1025200094F84010082088402840E0B106F00800E8
:10253000C8B12068006820F00E002168086094F897
:10254000401001208840E16B48600120A06384F8BE
:10255000210000BF002084F8200000BF206B10B1D4
:102560002046216B884770BD0800024001460022CA
:1025700009B901207047164B0868C01A1423B0FB34
:10258000F3F08000086412480838C863022081F81C
:1025900021000868026843F6F0708243D1E9010324
:1025A0001843CB6818430B6918434B6918438B6970
:1025B0001843CB691843024308680260002088630F
:1025C000012081F82100002081F8200000BFD1E720
:1025D000080002402DE9F04104460D4616461F460C
:1025E0004FF0000800BF94F82000012802D102201B
:1025F000BDE8F081012084F8200000BF94F821009C
:1026000001282CD1022084F821000020A06320683A
:10261000006820F00100216808603B4632462946E8
:102620002046FFF737FEE06A30B12068006840F0CE
:102630000E00216808600BE02068006820F00400AC
:10264000216808602068006840F00A00216808607E
:102650002068006840F001002168086006E000BFC3
:10266000002084F8200000BF4FF002084046BFE77A
:102670002DE9F8470346002294466EE14FF0010829
:1026800008FA02F4D1F8008008EA0400A0427DD1E3
:10269000DFF8DCA2D1F80480A8EB0A09D0453AD0D3
:1026A00014DCB8F1030F50D009DCB8F1000F31D0C1
:1026B000B8F1010F1CD0B8F1020F49D120E0B8F1F8
:1026C000110F18D0B8F1120F42D11EE0B9F5881FD2
:1026D00025D006DCB9F5803F20D0B9F5801F37D171
:1026E0001AE0B9F5001F18D0B9F5041F30D117E072
:1026F000D1F80CC02DE0D1F80C8008F1040C28E0D2
:10270000D1F80C8008F1080C23E0D1F80C8008F116
:102710000C0C1EE000BF00BF00BF00BF00BF00BF29
:10272000D1F80880B8F1000F02D14FF0040C0BE093
:10273000D1F80880B8F1010F03D14FF0080C1C61EB
:1027400002E04FF0080C5C6103E04FF0000C00E089
:1027500000BF00BFFF2801D8984601E003F104083C
:102760004646FF2802D84FEA820803E0A2F1080893
:102770004FEA88084746D6F800804FF00F0909FA5B
:1027800007F928EA09080CFA07F900E088E048EAA6
:102790000908C6F80080D1F8048008F08058B8F124
:1027A000805F7DD100BFDFF8CC81D8F8188048F079
:1027B0000108DFF8C091C9F81880C846D8F8188019
:1027C00008F00108CDF8008000BF00BF4FEAB9381B
:1027D0004FEA920958F829504FEA82784FEA18795F
:1027E0004FF00F0808FA09F825EA0805DFF8888194
:1027F000434502D14FF0000816E0DFF880814345E1
:1028000002D14FF001080FE0DFF87481434502D197
:102810004FF0020808E0DFF86C81434502D14FF029
:10282000030801E04FF004084FEA82794FEA197972
:1028300008FA09F848EA0505DFF84C814FEA9209E1
:1028400048F82950D1F8048008F48038B8F5803F62
:102850000AD1DFF83881D8F8008048EA0008DFF8AC
:102860002C91C9F8008009E0DFF82081D8F80080B9
:1028700028EA0008DFF81491C9F80080D1F8048034
:1028800008F40038B8F5003F10D1DFF8008108F1F6
:102890000408D8F8008048EA0008DFF8F09000E06B
:1028A0005AE009F10409C9F800800DE0DFF8DC8086
:1028B00008F10408D8F8008028EA0008DFF8CC9076
:1028C00009F10409C9F80080D1F8048008F48018DF
:1028D000B8F5801F0ED1DFF8B48008F10808D8F8E9
:1028E000008048EA0008DFF8A49009F10809C9F857
:1028F00000800DE0DFF8948008F10808D8F8008027
:1029000028EA0008DFF8849009F10809C9F8008076
:10291000D1F8048008F40018B8F5001F0ED1DFF8D4
:102920006C8008F10C08D8F8008048EA0008DFF84D
:102930005C9009F10C09C9F800800DE0DFF84C80CB
:1029400008F10C08D8F8008028EA0008DFF83C906D
:1029500009F10C09C9F80080521CD1F8008028FA4E
:1029600002F8B8F1000F7FF489AEBDE8F8870000E7
:10297000000011100010024000080140000C01404E
:102980000010014000140140080001400004014013
:10299000024693680B400BB1012000E00020704715
:1029A0000AB1016101E00B0403617047014800684E
:1029B000704700000C0400200348006803490978B0
:1029C00008440149086070470C04002014040020EA
:1029D00010B50848006840F0100006490860032060
:1029E00000F0A2F80F2000F007F800F02BF800200C
:1029F00010BD00000020024070B504460E4800786B
:102A00004FF47A71B1FBF0F00C490968B1FBF0F5B5
:102A1000284600F041FC08B1012070BD102C07D2FF
:102A200000222146501E00F041F80548046001E0F4
:102A30000120F2E70020F0E7140400201804002031
:102A40001004002008B500BF0D48806940F0010067
:102A50000B4988610846806900F00100009000BFC2
:102A600000BF00BF0846C06940F08050C8610846FA
:102A7000C06900F08050009000BF00BF08BD00009A
:102A8000001002400146084600280DDB00BF00BFD1
:102A900000F01F0301229A4043099B0003F1E02349
:102AA000C3F8002100BF00BF00BF70472DE9F05FF1
:102AB00080460D461646002701F0F4FE07463946CB
:102AC0002A46334601F00700C0F1070ABAF1040FA5
:102AD00002D94FF0040A01E0C0F1070AD14600F123
:102AE000040ABAF1070F02D24FF0000A01E0A0F188
:102AF000030AD4464FF0010A0AFA09FAAAF1010AB8
:102B00000AEA020A0AFA0CFA4FF0010B0BFA0CFB64
:102B1000ABF1010B0BEA030B4AEA0B0421464046DA
:102B200001F0C8FEBDE8F09F00BF00F00702064BB1
:102B300019684FF6FF031940044B0B4343EA022187
:102B4000014B196000BF70470CED00E00000FA0572
:102B500000BFBFF34F8F0748006800F4E0600649EC
:102B60000843001D03490860BFF34F8F00BF00BF3B
:102B700000BFFDE70CED00E00000FA0570B504466B
:102B80000D460CB9012070BD5A48006800F00700DE
:102B9000A8420ED25748006820F007002843554944
:102BA00008600846006800F00700A84201D0012034
:102BB000E9E7207800F0020002281DD1207800F01B
:102BC0000400042805D14C48406840F4E0604A49BC
:102BD0004860207800F00800082805D14648406881
:102BE00040F46050444948604348406820F0F00099
:102BF000A168084340494860207800F0010078B39C
:102C00006068012806D13C48006800F4003090B9A3
:102C10000120B8E76068022806D13748006800F054
:102C2000007040B90120AEE73348006800F00200B0
:102C300008B90120A7E73048406820F00300616828
:102C400008432D494860FFF7B1FE064609E0FFF74B
:102C5000ADFE801B41F28831884202D9032092E701
:102C600007E02548406800F00C006168B0EB810F78
:102C7000EDD12048006800F00700A8420ED91D4899
:102C8000006820F0070028431A49086008460068D9
:102C900000F00700A84201D0012074E7207800F07E
:102CA0000400042807D11448406820F4E060E1687B
:102CB000084311494860207800F00800082808D12E
:102CC0000D48406820F46050216940EAC1000A497B
:102CD000486000F061F808494968C1F30311074AE8
:102CE000515CC8400649086006480068FFF784FE4A
:102CF000002048E70020024000100240FBC9000805
:102D000018040020100400200F2202600D4A5268AF
:102D100002F0030242600B4A526802F0F002826045
:102D2000084A526802F4E062C260064A526802F43D
:102D30006052D2080261044A126802F007020A6077
:102D40007047000000100240002002400148006867
:102D5000704700001804002000B5FFF7F7FF044992
:102D60004968C1F30221034A515CC84000BD00001C
:102D7000001002400BCA000800B5FFF7E7FF044946
:102D80004968C1F3C221034A515CC84000BD00003C
:102D9000001002400BCA0008F0B585B00FF26C0CB1
:102DA0009CE8E01001A8A0E8E0101CA52D680095A3
:102DB00000210022002300240020194D696801F041
:102DC0000C05F5B1042D02D0082D19D101E01548EC
:102DD00019E001ADC1F38346AC5D01F4803555B116
:102DE0000F4D6D68C5F340451DF805200D4D654339
:102DF000B5FBF2F302E00C4D04FB05F3184602E0CC
:102E000000BF084800BF00BF05B0F0BD02030405C5
:102E1000060708090A0B0C0D0E0F10100102000026
:102E20000010024000127A0000093D00F8B5044687
:102E30000CB90120F8BD207800F00100002878D0FE
:102E4000F848406800F00C0004280CD0F5484068B1
:102E500000F00C00082811D1F248406800F48030DE
:102E6000B0F5803F0AD1EF48006800F40030002838
:102E70005FD0606800285CD10120DBE700BF60689C
:102E8000B0F5803F06D1E748006840F48030E5495E
:102E9000086028E0606858B9E248006820F4803093
:102EA000E04908600846006820F4802008601AE0C5
:102EB0006068B0F5A02F0BD1DA48006840F480209C
:102EC000D84908600846006840F4803008600AE08D
:102ED000D448006820F48030D24908600846006871
:102EE00020F48020086000BF606888B1FFF75EFDB5
:102EF000054606E0FFF75AFD401B642801D9032070
:102F000098E7C848006800F400300028F2D010E0CC
:102F1000FFF74CFD054606E0FFF748FD401B64281F
:102F200001D9032086E7BF48006800F4003000287C
:102F3000F2D1207800F00200022857D1B948406849
:102F400000F00C0050B1B748406800F00C000828B1
:102F500018D1B448406800F4803098B9B14800688E
:102F600000F0020020B12069012801D0012061E7B2
:102F7000AC48006820F0F800616940EAC100A94946
:102F8000086033E02069E8B10120A7490860FFF735
:102F90000DFD054606E0FFF709FD401B022801D99B
:102FA000032047E79F48006800F002000028F2D0A5
:102FB0009C48006820F0F800616940EAC100994926
:102FC000086013E0002098490860FFF7EFFC054611
:102FD00006E0FFF7EBFC401B022801D9032029E79C
:102FE0009048006800F002000028F2D1207800F03C
:102FF000080008282DD1A069B8B101208B490860CC
:10300000FFF7D4FC054606E0FFF7D0FC401B022882
:1030100001D903200EE78348406A00F0020000282F
:10302000F2D0012000F0F6FF13E000207F49086095
:10303000FFF7BCFC054606E0FFF7B8FC401B022882
:1030400001D90320F6E67748406A00F00200002824
:10305000F2D1207800F00400042873D100277148D1
:10306000C06900F0805070B900BF6E48C06940F080
:1030700080506C49C8610846C06900F080500090DB
:1030800000BF00BF01276A48006800F48070B0B933
:103090006748006840F4807065490860FFF786FC67
:1030A000054606E0FFF782FC401B642801D9032097
:1030B000C0E65F48006800F480700028F2D000BFCE
:1030C000E068012806D15748006A40F001005549E0
:1030D000086227E0E06858B95248006A20F0010011
:1030E000504908620846006A20F00400086219E0AE
:1030F000E06805280BD14B48006A40F004004949BC
:1031000008620846006A40F0010008620AE045488B
:10311000006A20F00100434908620846006A20F076
:103120000400086200BFE068A0B1FFF73FFC05465D
:1031300009E0FFF73BFC401B41F28831884202D98D
:10314000032077E622E03748006A00F002000028FA
:10315000EFD012E0FFF72AFC054608E0FFF726FC57
:10316000401B41F28831884201D9032062E62D4894
:10317000006A00F002000028F0D1012F05D1294893
:10318000C06920F080502749C86100BFE069C8B31A
:103190002448406800F00C00082860D0E06902284C
:1031A00048D1002020490866FFF700FC054606E0EC
:1031B000FFF7FCFB401B022801D903203AE619481F
:1031C000006800F000700028F2D1206AB0F5803F5E
:1031D00007D11448406820F40030A1680843114921
:1031E0004860D4E9080108430E49496821F4741184
:1031F00008430C49486001200B490866FFF7D6FBDD
:10320000054607E03DE0FFF7D1FB401B022801D94E
:1032100003200FE60348006800F000700028F2D099
:103220002FE00000001002400000424280044242B1
:1032300000700040002014490866FFF7B7FB054600
:1032400006E0FFF7B3FB401B022801D90320F1E59C
:103250000E48006800F000700028F2D111E0E0692B
:10326000012800D1E6E50948466806F48031206A65
:10327000814204D106F47011606A814201D00120BC
:10328000D8E50020D6E500000000424200100240D0
:1032900010B507F0B1FF10BD70B504462546681E95
:1032A000B0F1807F01D301200FE0681E4FF0E021D4
:1032B00048610F214FF0FF3001F0FCFA00204FF081
:1032C000E021886107200861002070BD10B5FFF77C
:1032D000DFFF10BD30B502460B4600BF92F83C0040
:1032E000012801D1022030BD012082F83C0000BF3E
:1032F000022082F83D00106844681068816824F05C
:1033000070041868044310684460104D1068A842A7
:103310000BD01068B0F1804F07D00D4D1068A84257
:1033200003D00C4D1068A84205D121F080015868E7
:10333000014310688160012082F83D0000BF002039
:1033400082F83C0000BF00BFCDE70000002C014028
:103350000004004000080040024600BF92F83C0014
:10336000012801D102207047012082F83C0000BFF3
:10337000022082F83D0010684161012082F83D0082
:1033800000BF002082F83C0000BF00BFEBE7000058
:1033900010B586B00446002002900390049005907A
:1033A0002068B0F1804F22D100BF1248806940F000
:1033B0000400104988610846806900F0040001900B
:1033C00000BF00BF4FF40040029002200390059020
:1033D00002A90948FFF74CF900BF0849486820F4E2
:1033E000407040F0E06040F48070486000BF06B07C
:1033F00010BD000000100240000801400000014024
:1034000070B504460D46164600BF94F83C000128EE
:1034100001D1022070BD012084F83C0000BF36B10C
:10342000042E1BD0082E31D00C2E5ED145E029464B
:10343000206800F0C9FE2068806940F0080021681B
:1034400088612068806920F0040021688861206814
:103450008069296908432168886147E02946206816
:1034600000F0E2FE2068806940F400602168886115
:103470002068806920F48060216888612068806904
:10348000296940EA0120216888612FE029462068E7
:1034900000F0FEFE2068C06940F008002168C861A5
:1034A0002068C06920F004002168C8612068C069F4
:1034B000296908432168C86118E02946206800F09E
:1034C0001BFF2068C06940F400602168C861206863
:1034D000C06920F480602168C8612068C0692969DA
:1034E00040EA01202168C86100E000BF00BF00BFC2
:1034F000002084F83C0000BF00BF8BE710B50446F5
:103500000CB9012010BD94F83D0028B9002084F8C2
:103510003C00204600F026F8022084F83D00211DE2
:10352000206800F005FE012084F8460000BF84F802
:103530003E0001213F200155402001554120015509
:1035400000BF00BF012084F8420043200155442001
:1035500001554520015500BF012084F83D000020A1
:10356000D0E7000008B50168B1F1804F0DD100BF70
:103570000649C96941F00101044AD1611146C9698E
:1035800001F00101009100BF00BF08BD0010024022
:1035900070B504460D4615B994F83E000BE0042DB5
:1035A00002D13F20005D06E0082D02D14020005DE1
:1035B00001E04120005D012801D0012070BD1DB94E
:1035C000022084F83E000EE0042D03D102213F20AA
:1035D000015508E0082D03D102214020015502E0E9
:1035E00002214120015501222946206800F0DAFD20
:1035F00019492068884201D1012000E0002028B14B
:103600002068406C40F400402168486412492068FA
:1036100088420BD02068B0F1804F07D00F49206856
:10362000884203D00E49206888420CD12068806807
:1036300000F00706062E0CD02068006840F001005C
:103640002168086005E02068006840F001002168FA
:1036500008600020B2E70000002C01400004004098
:103660000008004030B504460D4600222946206877
:1036700000F098FD21492068884201D1012000E036
:10368000002090B100BF2068006A41F2111108408B
:1036900050B92068006A8910084028B92068406C39
:1036A00020F400402168486400BF00BF2068006A21
:1036B00041F21111084050B92068006A8910084091
:1036C00028B92068006820F001002168086000BF68
:1036D0001DB9012084F83E000EE0042D03D1012124
:1036E0003F20015508E0082D03D10121402001555C
:1036F00002E0012141200155002030BD002C014095
:10370000704770472DE9F84F044620680568206827
:10371000C668206847694FF00009CA4605F00F09DE
:10372000B9F1000F0AD105F0200038B106F02000F1
:1037300020B1204600F0D1FEBDE8F88FB9F1000FAE
:1037400071D007F0010018B906F4907000286AD013
:1037500005F0010030B106F4807018B1206C40F023
:103760000100206405F0040030B107F0010018B139
:10377000206C40F00200206405F0020030B107F038
:10378000010018B1206C40F00400206405F008002E
:1037900048B106F0200010B907F0010018B1206C04
:1037A00040F008002064206C68B305F0200028B1C8
:1037B00006F0200010B1204600F08FFE206840691E
:1037C000C0F3801A206C00F0080010B9BAF1000FA5
:1037D00022D0204600F04CFE2068406900F04000F6
:1037E000B0B12068406920F0400021684861A06BBA
:1037F00050B15648A16B4863A06BFEF791FD10B124
:10380000A06B416B88470CE02046FFF77AFF08E089
:103810002046FFF776FF04E02046FFF772FF002006
:10382000206489E7FFE7206B012878D105F01000BC
:10383000002874D006F01000002870D000BF0020CF
:10384000009020680068009020684068009000BFE9
:1038500000BF2068406900F04000C0B3A06B006862
:1038600040681FFA80F8B8F1000F2FD0A08D4045B6
:103870002CDDA4F82E80A06B806920281FD0206842
:10388000C06820F480702168C8602068406920F01A
:103890000100216848612068406920F040002168EB
:1038A0004861202084F83E00002020632068C06822
:1038B00020F010002168C860A06BFEF705FDA08D08
:1038C000E28D801A81B22046FFF71AFF34E7FFE746
:1038D000A08DE18D401A1FFA80F8E08DE8B1B8F1B3
:1038E000000F1AD02068C06820F490702168C8606A
:1038F0002068406920F0010021684861202084F898
:103900003E00002020632068C06820F0100021687D
:10391000C86041462046FFF7F3FE0DE7FFE705F0DC
:10392000800030B106F0800018B1204600F035FF6D
:1039300002E705F0400030B106F0400018B1204623
:1039400000F0B1FDF8E600BFF6E6000041430008D4
:1039500010B504460CB9012010BDA06900B100E00B
:1039600000BF94F83D0028B9002084F83C002046B0
:1039700000F028F8242084F83D002068C06820F476
:1039800000502168C860204600F01AFE20680069D7
:1039900020F49040216808612068406920F02A00E6
:1039A000216848612068C06840F400502168C86000
:1039B00000202064202084F83D0084F83E00002090
:1039C000CAE7000010B586B00446002002900390BC
:1039D000049005905149206888422FD100BF50487B
:1039E000806940F480404E4988610846806900F44F
:1039F0008040019000BF00BF00BF0846806940F0D2
:103A0000040088610846806900F00400019000BF4E
:103A100000BF48150290022003900320059002A9E0
:103A20004048FEF725FE4FF480600290002003908E
:103A3000049002A93B48FEF71BFE6DE03A4920685E
:103A4000884269D100BF3648C06940F480203449BB
:103A5000C8610846C06900F48020019000BF00BF23
:103A600000BF0846806940F0080088610846806908
:103A700000F00800019000BF00BF0815029002206E
:103A800003900320059002A92848FEF7F1FD4FF4AA
:103A90000060029000200390049002A92348FEF7E2
:103AA000E7FD2348234908600020486000212148A1
:103AB00081608021C1600021016141618161C1613A
:103AC000FEF754FD08B1FEF7FCFB00BF1948A063E8
:103AD000446200BF16481438174908601020486037
:103AE0000021154881608021C16000210161416190
:103AF0008161C161FEF73AFD08B1FEF7E2FB00BF4C
:103B00000D486063446200BF002211462720FEF783
:103B1000CDFF2720FEF7B6FF06B010BD00380140EC
:103B2000001002400008014000480040000C014025
:103B3000300002404C4D0020904D002070B50446EE
:103B40000D46164694F83E00202816D105B10EB950
:103B5000012070BD00BF94F83C00012801D1022073
:103B6000F7E7012084F83C0000BF002020633246C4
:103B70002946204600F0A2FDEBE70220E9E770B5F8
:103B800004460D46164694F83E00202816D105B18D
:103B90000EB9012070BD00BF94F83C00012801D18E
:103BA0000220F7E7012084F83C0000BF00202063DA
:103BB00032462946204600F0CDFDEBE70220E9E73A
:103BC00010B504460848006884420BD107480068D5
:103BD000012801D107F050FC04480068022801D1F7
:103BE00007F008FC10BD0000B8020020B40200205D
:103BF00070472DE9F84F04460E46174699464FF098
:103C0000000A94F83D0020285AD106B117B90120C6
:103C1000BDE8F88F00BF94F83C00012801D10220D4
:103C2000F6E7012084F83C0000BF0020206421203A
:103C300084F83D00FEF7BAFE8246A784E784A068B8
:103C4000B0F5805F04D1206910B90025B04602E0CC
:103C500035464FF0000800BF002084F83C0000BF4C
:103C60001BE05346002280212046CDF8009000F052
:103C7000C4FD08B10320CBE745B9B8F80000C0F394
:103C800008002168486008F1020803E028782168EC
:103C900048606D1CE08C401EE084E08C0028E0D180
:103CA0005346002240212046CDF8009000F0A5FDAB
:103CB00008B10320ACE7202084F83D000020A7E7EE
:103CC0000220A5E7F7B50446154694F83D002028E4
:103CD0003DD1019800B10DB90120FEBD00BF94F89F
:103CE0003C00012801D10220F7E7012084F83C00C4
:103CF00000BF01982062A584E58400202064212073
:103D000084F83D001348616B88621348616BC86298
:103D10001248616B08630020616B486301AE236841
:103D20001A1D31682B46606BFEF754FC6FF04000A3
:103D30002168086000BF002084F83C0000BF2068B4
:103D4000406940F08000216848610020C5E70220FA
:103D5000C3E700002D4400086344000855430008F1
:103D600010B5034693F83D00202823D101B10AB9CC
:103D7000012010BD00BF93F83C00012801D10220B2
:103D8000F7E7012083F83C0000BF19629A84DA84C7
:103D900000201864212083F83D0000BF002083F834
:103DA0003C0000BF1868C06840F080001C68E060FC
:103DB0000020DEE70220DCE710B504460848006872
:103DC00084420BD107480068012801D107F0E6FBC7
:103DD00004480068022801D107F0A6FB10BD0000CE
:103DE000B8020020B4020020704700BFFEE70000C8
:103DF0000A49096801F0010179B108498039096867
:103E000001F0010149B100E000BF4FF060410968D5
:103E10000029F9D04FF0604210707047800E00E02A
:103E200008B500BF0E48406940F001000C494861E8
:103E30000846406900F00100009000BF00BF00226A
:103E400011460C20FEF732FE0C20FEF71BFE00226E
:103E500011460D20FEF72AFE0D20FEF713FE08BDC9
:103E60000010024000B585B0002001900290039040
:103E7000049000BF2948806940F0200027498861EC
:103E80000846806900F02000009000BF00BF00BF1E
:103E90000846806940F0100088610846806900F09B
:103EA0001000009000BF00BF00BF0846806940F0CE
:103EB000080088610846806900F00800009000BF93
:103EC00000BF00BF0846806940F0040088610846D2
:103ED000806900F00400009000BF00BF00224FF492
:103EE00070710F48FEF75CFD0F20019000200290DA
:103EF0000120039001A90A48FEF7BAFB4FF4707045
:103F0000019001200290002003900220049001A95A
:103F10000348FEF7ADFB05B000BD000000100240F5
:103F20000010014000B589B00020079008901C21C6
:103F30006846FCF788FC4FF08040174908600F2066
:103F400048600021144881604FF6FF71C160002174
:103F500001618161FFF7D2FA08B1FEF7B2F90020E2
:103F60000790089007A90C48FFF7B4F908B1FEF7CD
:103F7000A8F9602000900020019002900490002297
:103F800069460548FFF73CFA08B1FEF79AF902487E
:103F9000FFF7FEF909B000BD7C4C002010B50B48BE
:103FA0000B4908604FF416504860002108488160B2
:103FB000C16001610C21416100218161C161FFF794
:103FC000C7FC08B1FEF77DF910BD000000380140C4
:103FD000C44C002010B50B480B4908604FF4165034
:103FE0004860002108488160C16001610C21416185
:103FF00000218161C161FFF7ABFC08B1FEF761F9F7
:1040000010BD000000480040084D002000BFFEE742
:1040100000BFFEE708B508490968C9084FF47A727D
:10402000B1FBF2F14143009100BF00BF00994A1E6D
:1040300000920029F9D108BD18040020F8B5044603
:104040004FF0FF37A56B032D06D329460BA007F0D1
:104050002FF93846A062F8BD0E4850F8256036B1F9
:10406000009404F128000FC8B047074603E0294632
:1040700009A007F01DF9A7623846ECE7696E766182
:104080006C696420737663206E756D62657220259D
:10409000640A000094C0000873797363616C6C203B
:1040A0006E6F7420696E7374616C6C656420666FEA
:1040B0007220737663206E756D6265722025640AC6
:1040C0000000000010B5FEF777FCFFF7FFF810BD09
:1040D00000B58FB0282105A8FCF7B5FB1421684670
:1040E000FCF7B1FB0120059000040690002007902A
:1040F0000120099002200C90C1030D9100210E9126
:1041000005A8FEF793FE08B1FEF7DBF80F2000903C
:104110000220019000200290039004900021684644
:10412000FEF72CFD08B1FEF7CCF80FB000BD7047CC
:1041300010B50268184B984208D0B0F1804F05D0F6
:10414000164B984202D0164B984203D122F07002CF
:104150004B681A43104B984208D0B0F1804F05D0FD
:104160000E4B984202D00E4B984203D122F440727B
:10417000CB681A4322F080034C6943EA04020260D0
:104180008B68C3620B688362034B984201D10B6951
:1041900003630123436110BD002C01400004004073
:1041A0000008004030B501F01F05012404FA05F3B2
:1041B000046A9C430462046A01F01F0502FA05F5D3
:1041C0002C43046230BD000030B5056A25F00105BE
:1041D0000562026A4368846924F0700424F00304D1
:1041E0000D682C4322F002028D682A430D4DA8422F
:1041F00006D100BF22F00802CD682A4322F0040253
:10420000084DA84207D123F4807323F400734D694D
:104210002B438D692B43436084614D684563026283
:1042200030BD0000002C014030B5056A25F01005B6
:104230000562026A4368846924F4E04424F440740B
:104240000D6844EA052422F020028D6842EA051236
:104250000E4DA84207D100BF22F08002CD6842EA8D
:10426000051222F04002094DA84209D123F48063CF
:1042700023F400634D6943EA85038D6943EA8503AE
:10428000436084614D688563026230BD002C01404B
:1042900030B5056A25F480750562026A4368C46911
:1042A00024F0700424F003040D682C4322F40072FF
:1042B0008D6842EA05220F4DA84207D100BF22F4C3
:1042C0000062CD6842EA052222F48062094DA842CC
:1042D00009D123F4805323F400534D6943EA0513B5
:1042E0008D6943EA05134360C4614D68C56302628A
:1042F00030BD0000002C014030B5056A25F4805522
:104300000562036A4468C26922F4E04222F4407202
:104310000D6842EA052223F400538D6843EA053311
:10432000064DA84204D124F480444D6944EA851422
:104330004460C2614D680564036230BD002C0140D9
:1043400070B505466C6A0020E085E0842046FFF7E2
:10435000D8F970BD70B506460025746A20684069BA
:10436000C0F3C01594F83D00212805D125B10020E7
:10437000E084204600F0A7F820684069C0F380156B
:1043800094F83E00222805D125B10020E085204682
:1043900000F06EF8206C40F0100020642046FFF71B
:1043A000B0F970BD70B505466C6A2868006800F009
:1043B0002000F8B90020E0852068C06820F48070F3
:1043C0002168C8602068406920F0010021684861C8
:1043D0002068406920F0400021684861202084F86E
:1043E0003E00206B012805D12068C06820F0100035
:1043F0002168C860206B012804D1A18D2046FFF7F9
:104400007FF902E02046FFF7DBFB70BD70B5054683
:104410006C6A206B012805D1A08D41082046FFF76A
:104420006FF902E02046FFF7E3FB70BD70B505466B
:104430006C6A2868006800F0200070B90020E084F1
:104440002068406920F08000216848612068C068C9
:1044500040F040002168C86002E02046FFF7ACFC55
:1044600070BD70B50446656A2846FFF7BDFC70BD97
:104470000168C96821F490710268D16001684969D6
:1044800021F0010102685161016B012905D1016828
:10449000C96821F010010268D160202180F83E1027
:1044A00000210163704710B504462068C06820F001
:1044B00040002168C860202084F83D002046FFF7B6
:1044C0007BFC002010BD0168C96821F0C0010268B2
:1044D000D160202180F83D107047F8B5044694F86B
:1044E0003E00222869D1A068B0F5805F0CD1206918
:1044F00050B90025A66A20684068C0F308003080E3
:10450000A06A801CA06215E0A56A0026A068B0F52C
:10451000805F03D0A06828B9206918B92068406876
:10452000287004E02068406800F07F002870A06ACE
:10453000401CA062E08D401E80B2E085A8BB2068D0
:10454000C06820F020002168C8602068C06820F49E
:1045500080702168C8602068406920F001002168EF
:104560004861202084F83E00206B01281ED10020E5
:1045700020632068C06820F010002168C8602068AF
:10458000006800F0100010280AD100BF0020009041
:1045900020680068009020684068009000BF00BF5D
:1045A000A18D2046FFF7ACF803E004E02046FFF7BA
:1045B00007FB0020F8BD0020FCE70220FAE700001E
:1045C00070B504462168096921F44051E26811433D
:1045D000226811612269A1681143626941EA0205FA
:1045E0002168C96841F20C62914329432268D16075
:1045F0002168496921F44071A2691143226851611F
:104600002D4A2168914202D1FEF7B6FB01E0FEF788
:10461000A3FB00EBC00101EB001162689200B1FB4B
:10462000F2F100EBC00202EB001263689B00B2FBE8
:10463000F3F26423B2FBF3F202EBC20303EB0212C8
:10464000A1EB8201322202EB01116422B1FBF2F1F3
:1046500001F0F00100EBC00202EB001263689B0066
:10466000B2FBF3F26423B2FBF3F201EB021200EBB4
:10467000C00101EB001163689B00B1FBF3F100EB9B
:10468000C00303EB00136668B600B3FBF6F36426C1
:10469000B3FBF6F303EBC30606EB0313A1EB8301B5
:1046A000322303EB01116423B1FBF3F101F00F019D
:1046B00011442268916070BD0038014077B581B027
:1046C000044615460298A062A58500202064222099
:1046D00084F83E001C48A16B88621C48A16BC8622C
:1046E0001B48A16B08630020A16B486302AE3268CF
:1046F0002368191D2B46A06BFDF76CFF00BF00203F
:10470000009020680068009020684068009000BF1A
:1047100000BF00BF002084F83C0000BF2068C068D4
:1047200040F480702168C8602068406940F0010052
:10473000216848612068406940F040002168486174
:10474000002004B070BD0000A54300080D4400081F
:104750005543000810B5034699629A85DA85002012
:104760001864222083F83E0000BF002083F83C003C
:1047700000BF1868C06840F480701C68E06018686A
:10478000406940F001001C6860611868C06840F032
:1047900020001C68E060002010BD014691F83D003B
:1047A000212828D18868B0F5805F0BD1086948B905
:1047B0000A6A1088C0F308000B685860086A801CF9
:1047C000086205E00B6A581C086218780B6858608C
:1047D000C88C401E80B2C88458B90868C06820F0F0
:1047E00080000B68D8600868C06840F040000B6823
:1047F000D860002070470220FCE72DE9F041044614
:104800000D4617469846069E21E0701CF8B12EB161
:10481000FEF7CCF8A0EB0800B04218D92068C068B9
:1048200020F4D0702168C8602068406920F0010041
:1048300021684861202084F83D0084F83E0000BFD4
:10484000002084F83C0000BF0320BDE8F081206810
:1048500000682840A84201D1012000E00020B842B1
:10486000D3D00020F1E7000010B50248FEF74AFF60
:1048700010BD0000084D002000BFFEE7490050EACF
:10488000C12018BF04204A0D18BF40F0010040F2BB
:10489000FF72B2EB515F08BF40F00200012808BF71
:1048A0000520704702480068C0F3022070470000EE
:1048B0000CED00E010B5002804DB0A07130E054AD2
:1048C000135406E00A07140E034A00F00F031B1FDF
:1048D000D45410BD00E400E018ED00E0EFF31480C4
:1048E00070472DE9F04104460E461546D4E9010112
:1048F000401AA84201D9284602E0D4E90101401A31
:104900000546BFF36F8F2168491EA06808402168E3
:10491000081AA84201D9284605E02168491EA06866
:1049200008402168081A07462268521EA0681040F5
:1049300004F10C0281183A463046FBF7A1FEEA1B4F
:10494000F01904F10C01FBF79BFEBFF36F8FA06819
:104950002844A0602846BDE8F0812DE9F0410446D6
:104960000F461546D4E90001401AA1680844A84240
:1049700001D9284604E0D4E90001401AA16808449E
:104980000546BFF36F8FD4E90010491E0840216827
:10499000081AA84201D9284605E0D4E90010491EAA
:1049A00008402168081A0646D4E90021521E114029
:1049B00004F10C02881832463946FBF761FEAA1B47
:1049C000B91904F10C00FBF75BFEBFF36F8F606851
:1049D000284460602846BDE8F08180F31488BFF366
:1049E0006F8F70472DE9F04104460D46124800686C
:1049F000856400BF00F044FE30B1104B40F28F12CE
:104A00000FA116A000F07CF800BFFBF733FC0646B0
:104A100000270DE008480068446403210648006848
:104A200005F024F905F04AFE3046FBF727FC012784
:104A3000002FEFD0BDE8F081B401002058BF00087E
:104A40002E2E5C2E2E5C6C61622D7372635C6B6526
:104A5000726E5C7461736B2E63000000216370756D
:104A60005F696E5F697271282900000030380A287A
:104A700001D20120704700207047000010B50446A5
:104A800011E00B4850F82400401C094941F824006B
:104A9000084802F035FE08480068401C06490860D6
:104AA000044802F0A1FD054800680028E9D010BDC7
:104AB000240A0020440A00208C00002090000020DE
:104AC00010B502F04FFC03A20AA10C4802F046F810
:104AD00010BD0000736D6F6B652E2072756E2062C5
:104AE0006F61726420736D6F6B6520746573746998
:104AF0006E670000736D6F6B650000001155000854
:104B000008B504460D4616461F4633462A4621463A
:104B100002A0009706F0CCFB00BFFEE74661696C7F
:104B2000656420417373657274696F6E2027257305
:104B3000272061742025733A257520696E206675DB
:104B40006E6374696F6E2025730D0A002DE9F041C4
:104B500004460D46FBF78EFB0646002706E020685C
:104B6000284420603046FBF789FB0127002FF6D050
:104B70002068BDE8F08110B500F0AAF802F0A2FCB0
:104B8000002010BD024612B90878024B1870014887
:104B900000787047F903002010B500F025F802F006
:104BA00083FC002010BD10B500F09EF802F098FCC8
:104BB000002010BD70B504460E46254602F0A8FC44
:104BC00000F092F828880749097800F0A5F868886D
:104BD00005F0D5FD00F07CF8A88805F0D0FD304642
:104BE00070BD0000F903002010B502A003F0E9FC3D
:104BF000002010BD2F70776D2F322E310000000085
:104C000038B50446012C05D0022C02D0032C29D142
:104C100014E027E06A460521134803F0E6F89DF802
:104C20000000012809DD9DF80000401EC0B2009080
:104C30006A4604210C4803F0D8F813E06A460521BF
:104C4000094803F0D2F89DF80000632809DA9DF8BE
:104C50000000401CC0B200906A460421024803F0E4
:104C6000C4F800BF00BF38BDC84B002010B50446D3
:104C7000012C16D0022C02D0032C24D11AE01348A8
:104C8000007828B900220121104803F0AEF804E0B2
:104C9000002211460D4803F0A8F80C4803F0DAF999
:104CA00011E000220221094803F09FF8074803F0B1
:104CB000D1F908E000220321044803F096F80348E4
:104CC00003F0C8F900BF00BF10BD0000C84B0020B2
:104CD00010B502A003F043FC002010BD2F70776DCB
:104CE0002F322E310000000010B502A003F050FC5E
:104CF000002010BD2F70776D2F322E310000000084
:104D000010B501F041F801F01DF803F0DFF801F0F3
:104D100037FD002010BD00002DE9F04104460D468E
:104D2000074890FBF4F66420B6FBF0F000FB05F7B3
:104D30003A46314603A003F047FC0020BDE8F0816D
:104D400000CA9A3B2F70776D2F322E310000000081
:104D50002DE9FF4F81B004460D4616460A2094FB0C
:104D6000F0FB00FB1B40C7B20A2094FBF0F04FF0B1
:104D70000A0B90FBFBFE0BFB1E0000F0FF086420FB
:104D800094FBF0F0C0B20090781EDFF8C8B01BF8BA
:104D900000B000985844DFF8C0B03BF8103067B15D
:104DA000B8F1010F00D15B10B8F1030F03D14FF63A
:104DB000FF7000EA4303338001E0002030800A20C6
:104DC00095FBF0FB00FB1B50DFF890B01BF8009048
:104DD0000A2095FBF0F04FF00A0B90FBFBFE0BFB5B
:104DE0001E0000F0FF0C642095FBF0F000F0FF0ABD
:104DF0004FF4C86090FBF9F081B2BAF1010F06D10F
:104E0000084601EBD07B01EB6B0B1FFA8BF1BCF179
:104E1000010F0FD0BCF1000F06D188004FF0050B39
:104E200090FBFBF082B206E0084601EBD07BCBF3AF
:104E30004F0200E00A4607B9002204980280881A4F
:104E40001FFA80FB0E98A0F800B0002005B0BDE866
:104E5000F08F000044C10008244B00204BC1000823
:104E600010B50121002000F003F8002010BD000063
:104E700030B504460A4600212DE00819C3B20B2BB9
:104E80000DDDA3F10C00C3B2154830F813004FF646
:104E9000FF7505EA4000134D25F8110005E01048A4
:104EA00030F813000F4D25F81100002A08DA0D48DC
:104EB00030F81100554228410A4D25F8110008E04C
:104EC000002A06DD074830F811009040054D25F80E
:104ED0001100481CC1B20C29CFDB002030BD0000FE
:104EE0002CC10008244B0020F8B505460C46164698
:104EF000301D012202EB440305F11E020090D15C3B
:104F000012F81400B31C3246FFF722FF0220F8BD4E
:104F10000246002101E0881C81B202F11E00405CC3
:104F20000028F8D10B4601EBD370C0F34F00704757
:104F300002460B46002102E0505C5854491C505C6C
:104F40000028F9D15854704770B51AA41DA5204601
:104F5000FBF72CFB86B26423324621461D48FEF740
:104F600048FE2846FBF722FB86B2642332462946D8
:104F70001948FEF73EFE0721184801F0DCF8082129
:104F8000164801F0D8F80921144801F0D4F8062198
:104F9000124801F0D0F800214FF0804005F00AFEE1
:104FA0004FF4FA7005F0EBFB00214FF0804005F064
:104FB00043FE70BD544849532069732055415254F3
:104FC000310A000054484953206973205541525416
:104FD000330A0000C44C0020084D0020001001409E
:104FE00000BF00BF4FF0FF30084A1268084B9A42DA
:104FF00004D0064A10681A46044B1A60014600BFE6
:10500000481C0028EDD0C8B27047000030000020D6
:10501000A55AA55A0120704710B504462046FEF750
:10502000E7FE10BD10B504462046FEF7E1FE10BDB8
:1050300010B50446207B012802D0032808D103E0E4
:10504000E088FFF713FE04E0E088FFF7D9FD00E0F9
:1050500000BF00BF10BD014691F824000009704751
:105060002DE9F04704460E4615469946DDE90878D5
:10507000A6610DB1012000E0002094F8241060F337
:10508000000184F82410E761C4F820800DB90120E4
:1050900000E0002014F8241F60F3820121702078C2
:1050A000810861F3410004F8240900BF00BF1848DB
:1050B0004068006848B100BF15484068144902685C
:1050C00014A006F0F5F800BFFEE700BF0020206046
:1050D0000F48406860600E48406804600C484460B7
:1050E00000BFC1684161816801612521C16015A0CF
:1050F0000749886000BF00BFE1686161A168216164
:105100002521E1600FA0A06000BF00BFBDE8F087CF
:1051100004020020426164207461696C71204E4574
:1051200058542825702D3E7471685F6C6173742922
:1051300020213D204E554C4C2C206C617374202551
:10514000700000002E2E5C2E2E5C6C61622D73723E
:10515000635C70726F6A656374325C627574746FDD
:105160006E5F7363616E2E630000000010B503F084
:1051700097FD03F0C5F810BD01F04CFB01F0C2FA39
:1051800004E0FFF7F3FF052005F0F9FAF9E7000066
:1051900010B50021134800F0D4FF04462246062132
:1051A000104800F0DAFF01210E4800F0CAFF044663
:1051B000224607210B4800F0D0FF0221094800F0E9
:1051C000C0FF044622460821064800F0C6FF03211E
:1051D000044800F0B6FF044622460921014800F0C9
:1051E000BCFF10BD0010014070B504460D46002103
:1051F000064800F0A6FF20B92946204605F0DAFC53
:1052000003E02946204605F017FD70BD0008014067
:10521000026802F0200242B14268D1B200BF0268C7
:1052200002F08002002AFAD04160704710B50446AF
:10523000204601F007F810BD10B50446204601F0E5
:1052400001F810BDF8B506460D461446012D2DDDBA
:105250006068A0B1002269466068FBF737F91B4916
:10526000086008460068401C10B10098007828B11A
:1052700017A13046626801F003FCF8BD00BFA068CA
:10528000A0B100226946A068FBF720F91549086023
:1052900008460068401C10B10098007828B112A19F
:1052A0003046A26801F0ECFBE7E700BF0D4802685A
:1052B00006480168304600F0EDFC044800680949E2
:1052C000096808440149086000BFD6E7D000002003
:1052D00077726F6E6720616464726573733A2573C9
:1052E000210D0A00D400002077726F6E6720736969
:1052F0007A653A2573210D0A000000002DE9F0417E
:1053000005460E4617460BA1284601F0B9FB0E4C88
:1053100006E00EA12846D4E9002301F0B1FB0C34CD
:10532000A0680028F5D10DA1284601F0A9FBBDE831
:10533000F08100007368656C6C20636F6D6D616E49
:1053400064733A0D0A000000D8000020252D313684
:1053500073202D2025730D0A000000000D0A0000A7
:105360002DE9F04104460E46174605F087FF054635
:1053700005482A4605A10368204601F081FB04F098
:10538000C3FEBDE8F08100000002002074696D6575
:10539000202575207469636B732C20256420746943
:1053A0006D6572730A000000F8B507460E46144694
:1053B000012E02D103F0A8F824E0002269466068BB
:1053C000FBF784F80546681C10B10098007828B1F6
:1053D0000DA13846626801F053FBF8BD002D0ADBD1
:1053E000052D08D20D4951F835000DA30F220021DB
:1053F00004F032FD05E0052310A13846626801F093
:105400003FFB00BF00BFE8E777726F6E67207061F7
:1054100072616D733A2573210D0A000000000020AF
:1054200070726A5F7461626C655B6964785D2E702E
:10543000726A5F656E74727900000000706172615B
:10544000202573206F7574206F662072616E67650A
:105450005B302E2E25645D210D0A000070B50446D8
:105460000D46164603A1204601F00AFBFDF770FB2E
:1054700070BD00007265626F6F742E2E2E0A0000E0
:105480002DE9F84380460E4614460125012E14DD11
:10549000606890B1002269466068FBF717F805461E
:1054A000681C10B10098007830B10DA140466268C8
:1054B00001F0E6FABDE8F88300BF05F0DFFE8146A3
:1054C000284605F05CF905F0D9FE07464B462A460A
:1054D00008A14046009701F0D3FA00BFEAE70000B8
:1054E00077726F6E6720706172616D733A257321F8
:1054F0000D0A0000736C6565702025752074696362
:105500006B73282564202D3E202564290A000000A5
:105510002DE9F04106460F4690460C48006898B9C0
:1055200047F2305002F044F80446094805F066FCA2
:1055300005460023074A214605F0FCFB06A30F227F
:105540000021084804F088FCBDE8F0812C00002010
:105550001C040020999B0008736D6F6B655F74617C
:10556000736B0000D19400082DE9F04106460D460A
:105570001446012D08D122482249096850F82120FB
:1055800021A1304601F07CFA012D37DD002760684B
:105590000078702808D12449244801F087FB0020B6
:1055A00018490860012718E060680078692808D168
:1055B0001F49204801F07AFB0120124908600127A9
:1055C0000BE060680078642807D11B491B4801F094
:1055D0006DFB02200B49086001274FB108480949BB
:1055E000096850F8212016A1304601F049FA04E07C
:1055F0001BA13046626801F043FA00BFBDE8F081AC
:10560000EC030020B402002043757272656E7420B2
:10561000756172742074782F7278206D6F64653AAA
:105620002025730D0A000000BDB50008A9B40008CC
:1056300049B5000825B40008D5B40008A1B3000896
:1056400053657420756172742074782F7278206DA0
:105650006F646520746F3A2025730D0A0000000006
:10566000556E6B6F776E20756172742074782F722F
:1056700078206D6F6465203A2025730D0A000000C4
:1056800000BFEFF305800146C1F30800704700BF7B
:10569000EFF31080014601F0010109B101207047CC
:1056A0000020FCE700B504F0D9FA00BD10B50F22C8
:1056B00011466FF00100FDF7F9F910BD10B5034672
:1056C00023F0070048384FF08074446421F001044F
:1056D0000464164CC4634FF0123484634FF00334F7
:1056E00044634FF0023404636410C46282624FF07A
:1056F000113444624FF0103404624FF00934C46135
:105700004FF0083484614FF0073444614FF00634A1
:1057100004614FF00534C4604FF0043484606FF0CE
:10572000020444600224046010BD0000999F000838
:1057300010B5034B1B685B1C014C236010BD0000BF
:105740003800002010B5034B1B685B1C014C236024
:1057500010BD00003400002070B506460C4615460A
:1057600024B929463046FFF7E3FB05E0012C03D1BD
:105770003046FFF7CDFB2880002070BD2DE9F041B9
:1057800006460C4617461D4600BFA1B23A463046B3
:10579000FFF7AAFB0120BDE8F081000070B50446C8
:1057A0000E4600BF00BF00BF2CB9164B9B2216A1AE
:1057B0001DA0FFF7A5F900BF00BF1E49606B88421E
:1057C00005D0104B9B2210A11BA0FFF799F900BF39
:1057D00000BF206B002802DC4FF0FF3070BD00BF1F
:1057E0000025206B401E2063206B08B10020F5E7E8
:1057F000E06B20B131462046E26B904705462846D3
:10580000ECE70000FCBD00082E2E5C2E2E5C6C61C7
:10581000622D7372635C6B65726E5C696F735F643B
:1058200065766963652E630064657620213D204EB0
:10583000554C4C00535645446465762D3E6D61676A
:105840006963203D3D204445564943455F4D4147EE
:105850004943000010B50446204600F001F810BD91
:105860002DE9F04106460027B8460D4801F048FFF3
:105870000C4804680CE0A56A2A46314604F1180079
:10588000FAF7B3FE18B9454501DD2746A846246856
:10589000002CF0D1024801F0A7FE3846BDE8F081A7
:1058A0005C000020CC0800202DE9F04104460D46A4
:1058B00016461F4600BF00BF00BF2CB9144BC122C3
:1058C00014A11CA0FFF71CF900BF00BF1C49606BAE
:1058D000884205D00E4BC1220EA11AA0FFF710F985
:1058E00000BF00BF206B002803DC4FF0FF30BDE895
:1058F000F08100BFA06C38B13B46324629462046B5
:10590000D4F848C0E047F2E74FF0FF30EFE700007F
:1059100022BE00082E2E5C2E2E5C6C61622D7372EE
:10592000635C6B65726E5C696F735F6465766963F7
:10593000652E630064657620213D204E554C4C0059
:10594000535645446465762D3E6D61676963203D1D
:105950003D204445564943455F4D4147494300007A
:105960002DE9F04704460E461746984600BF00BF93
:105970002CB9164B862216A11DA0FFF7C1F800BF57
:1059800000BF1E49606B884205D0104B862210A1D3
:105990001BA0FFF7B5F800BF00BF00253146204629
:1059A00005F0AEFC8146A06B38B143463A46494605
:1059B0002046D4F838C0E0470546681C10B1206B7B
:1059C000401C20632846BDE8F0870000F0BD0008B9
:1059D0002E2E5C2E2E5C6C61622D7372635C6B6587
:1059E000726E5C696F735F6465766963652E6300D0
:1059F00064657620213D204E554C4C00535645445D
:105A00006465762D3E6D61676963203D3D204445A8
:105A1000564943455F4D4147494300002DE9F04158
:105A200004460D4616461F4600BF00BF00BF2CB9F6
:105A3000144BAC2214A11CA0FFF762F800BF00BFFA
:105A40001C49606B884205D00E4BAC220EA11AA0F7
:105A5000FFF756F800BF00BF206B002803DC4FF0B3
:105A6000FF30BDE8F08100BF206C38B13B463246C4
:105A700029462046D4F840C0E047F2E74FF0FF3017
:105A8000EFE7000009BE00082E2E5C2E2E5C6C6134
:105A9000622D7372635C6B65726E5C696F735F64B9
:105AA00065766963652E630064657620213D204E2E
:105AB000554C4C00535645446465762D3E6D6167E8
:105AC0006963203D3D204445564943455F4D41476C
:105AD0004943000070B504460D4614B94FF0FF303D
